{
  "contractName": "HelloWorld",
  "abi": [
    {
      "constant": true,
      "inputs": [
        {
          "name": "",
          "type": "address"
        }
      ],
      "name": "voters",
      "outputs": [
        {
          "name": "",
          "type": "bool"
        }
      ],
      "payable": false,
      "stateMutability": "view",
      "type": "function"
    },
    {
      "constant": true,
      "inputs": [],
      "name": "panelsCount",
      "outputs": [
        {
          "name": "",
          "type": "uint256"
        }
      ],
      "payable": false,
      "stateMutability": "view",
      "type": "function"
    },
    {
      "constant": true,
      "inputs": [
        {
          "name": "",
          "type": "uint256"
        }
      ],
      "name": "panels",
      "outputs": [
        {
          "name": "id",
          "type": "string"
        },
        {
          "name": "name",
          "type": "string"
        },
        {
          "name": "voteCount",
          "type": "uint256"
        }
      ],
      "payable": false,
      "stateMutability": "view",
      "type": "function"
    },
    {
      "anonymous": false,
      "inputs": [
        {
          "indexed": true,
          "name": "_panelId",
          "type": "string"
        }
      ],
      "name": "votedEvent",
      "type": "event"
    },
    {
      "constant": true,
      "inputs": [
        {
          "name": "a",
          "type": "string"
        },
        {
          "name": "b",
          "type": "string"
        }
      ],
      "name": "compareStrings",
      "outputs": [
        {
          "name": "",
          "type": "bool"
        }
      ],
      "payable": false,
      "stateMutability": "view",
      "type": "function"
    },
    {
      "constant": false,
      "inputs": [
        {
          "name": "_panelid",
          "type": "string"
        }
      ],
      "name": "addPanel",
      "outputs": [],
      "payable": false,
      "stateMutability": "nonpayable",
      "type": "function"
    },
    {
      "constant": false,
      "inputs": [
        {
          "name": "_panelId",
          "type": "string"
        }
      ],
      "name": "vote",
      "outputs": [],
      "payable": false,
      "stateMutability": "nonpayable",
      "type": "function"
    },
    {
      "constant": true,
      "inputs": [],
      "name": "winningProposal",
      "outputs": [
        {
          "name": "winningProposal_",
          "type": "uint256"
        }
      ],
      "payable": false,
      "stateMutability": "view",
      "type": "function"
    },
    {
      "constant": true,
      "inputs": [],
      "name": "winnerName",
      "outputs": [
        {
          "name": "",
          "type": "string"
        }
      ],
      "payable": false,
      "stateMutability": "view",
      "type": "function"
    }
  ],
  "bytecode": "0x608060405234801561001057600080fd5b50610c24806100206000396000f30060806040526004361061008e576000357c0100000000000000000000000000000000000000000000000000000000900463ffffffff16806334c9e96214610093578063609ff1bd146100fc578063a3ec138d14610127578063bed34bba14610182578063e2ba53f014610249578063e3ba06d1146102d9578063f40e4f6f14610304578063fc36e15b1461041d575b600080fd5b34801561009f57600080fd5b506100fa600480360381019080803590602001908201803590602001908080601f0160208091040260200160405190810160405280939291908181526020018383808284378201915050505050509192919290505050610486565b005b34801561010857600080fd5b50610111610514565b6040518082815260200191505060405180910390f35b34801561013357600080fd5b50610168600480360381019080803573ffffffffffffffffffffffffffffffffffffffff169060200190929190505050610578565b604051808215151515815260200191505060405180910390f35b34801561018e57600080fd5b5061022f600480360381019080803590602001908201803590602001908080601f0160208091040260200160405190810160405280939291908181526020018383808284378201915050505050509192919290803590602001908201803590602001908080601f0160208091040260200160405190810160405280939291908181526020018383808284378201915050505050509192919290505050610598565b604051808215151515815260200191505060405180910390f35b34801561025557600080fd5b5061025e610749565b6040518080602001828103825283818151815260200191508051906020019080838360005b8381101561029e578082015181840152602081019050610283565b50505050905090810190601f1680156102cb5780820380516001836020036101000a031916815260200191505b509250505060405180910390f35b3480156102e557600080fd5b506102ee610806565b6040518082815260200191505060405180910390f35b34801561031057600080fd5b5061032f6004803603810190808035906020019092919050505061080c565b604051808060200180602001848152602001838103835286818151815260200191508051906020019080838360005b8381101561037957808201518184015260208101905061035e565b50505050905090810190601f1680156103a65780820380516001836020036101000a031916815260200191505b50838103825285818151815260200191508051906020019080838360005b838110156103df5780820151818401526020810190506103c4565b50505050905090810190601f16801561040c5780820380516001836020036101000a031916815260200191505b509550505050505060405180910390f35b34801561042957600080fd5b50610484600480360381019080803590602001908201803590602001908080601f0160208091040260200160405190810160405280939291908181526020018383808284378201915050505050509192919290505050610966565b005b600160008154809291906001019190505550606060405190810160405280828152602001828152602001600081525060026000600154815260200190815260200160002060008201518160000190805190602001906104e6929190610b53565b506020820151816001019080519060200190610503929190610b53565b506040820151816002015590505050565b6000806000809150600090505b60015481101561057357816002600083815260200190815260200160002060020154111561056657600260008281526020019081526020016000206002015491508092505b8080600101915050610521565b505090565b60006020528060005260406000206000915054906101000a900460ff1681565b6000816040516020018082805190602001908083835b6020831015156105d357805182526020820191506020810190506020830392506105ae565b6001836020036101000a0380198251168184511680821785525050505050509050019150506040516020818303038152906040526040518082805190602001908083835b60208310151561063c5780518252602082019150602081019050602083039250610617565b6001836020036101000a038019825116818451168082178552505050505050905001915050604051809103902060001916836040516020018082805190602001908083835b6020831015156106a65780518252602082019150602081019050602083039250610681565b6001836020036101000a0380198251168184511680821785525050505050509050019150506040516020818303038152906040526040518082805190602001908083835b60208310151561070f57805182526020820191506020810190506020830392506106ea565b6001836020036101000a03801982511681845116808217855250505050505090500191505060405180910390206000191614905092915050565b606060026000610757610514565b81526020019081526020016000206001018054600181600116156101000203166002900480601f0160208091040260200160405190810160405280929190818152602001828054600181600116156101000203166002900480156107fc5780601f106107d1576101008083540402835291602001916107fc565b820191906000526020600020905b8154815290600101906020018083116107df57829003601f168201915b5050505050905090565b60015481565b6002602052806000526040600020600091509050806000018054600181600116156101000203166002900480601f0160208091040260200160405190810160405280929190818152602001828054600181600116156101000203166002900480156108b85780601f1061088d576101008083540402835291602001916108b8565b820191906000526020600020905b81548152906001019060200180831161089b57829003601f168201915b505050505090806001018054600181600116156101000203166002900480601f0160208091040260200160405190810160405280929190818152602001828054600181600116156101000203166002900480156109565780601f1061092b57610100808354040283529160200191610956565b820191906000526020600020905b81548152906001019060200180831161093957829003601f168201915b5050505050908060020154905083565b60008060003373ffffffffffffffffffffffffffffffffffffffff1673ffffffffffffffffffffffffffffffffffffffff16815260200190815260200160002060009054906101000a900460ff161515156109c057600080fd5b600090505b600154811015610ac057610a87600260008381526020019081526020016000206000018054600181600116156101000203166002900480601f016020809104026020016040519081016040528092919081815260200182805460018160011615610100020316600290048015610a7c5780601f10610a5157610100808354040283529160200191610a7c565b820191906000526020600020905b815481529060010190602001808311610a5f57829003601f168201915b505050505083610598565b15610ab35760026000828152602001908152602001600020600201600081548092919060010191905055505b80806001019150506109c5565b816040518082805190602001908083835b602083101515610af65780518252602082019150602081019050602083039250610ad1565b6001836020036101000a03801982511681845116808217855250505050505090500191505060405180910390207fc67ac03f9480999b27a37e263a5df747fef748d1edb0b64684da8fb07d21180e60405160405180910390a25050565b828054600181600116156101000203166002900490600052602060002090601f016020900481019282601f10610b9457805160ff1916838001178555610bc2565b82800160010185558215610bc2579182015b82811115610bc1578251825591602001919060010190610ba6565b5b509050610bcf9190610bd3565b5090565b610bf591905b80821115610bf1576000816000905550600101610bd9565b5090565b905600a165627a7a7230582044f1127dff9e0fb9904a269c0286c4a17c01ca793939c32fcad9d9d947ac31e40029",
  "source": "// SPDX-License-Identifier: GPL-3.0\n\npragma solidity 0.4.26;\n\ncontract HelloWorld {\n    function compareStrings(string memory a, string memory b)\n        public\n        view\n        returns (bool)\n    {\n        return (keccak256(abi.encodePacked((a))) ==\n            keccak256(abi.encodePacked((b))));\n    }\n\n    struct Panel {\n        string id;\n        string name;\n        uint256 voteCount;\n    }\n    mapping(address => bool) public voters;\n    uint256 public panelsCount;\n\n    mapping(uint256 => Panel) public panels;\n\n    function addPanel(string memory _panelid) public {\n        panelsCount++;\n        panels[panelsCount] = Panel(_panelid, _panelid, 0);\n    }\n\n    event votedEvent(string indexed _panelId);\n\n    function vote(string memory _panelId) public {\n        // require that they haven't voted before\n        require(!voters[msg.sender]);\n\n        // require a valid candidate\n        // require(_candidateId > 0 && _candidateId <= candidatesCount);\n\n        // record that voter has voted\n        for (uint256 i = 0; i < panelsCount; i++) {\n            if (compareStrings(panels[i].id, _panelId)) {\n                panels[i].voteCount++;\n            }\n        }\n        //voters[msg.sender] = true;\n\n        // update candidate vote Count\n\n        // trigger voted event\n        emit votedEvent(_panelId);\n    }\n\n    function winningProposal() public view returns (uint256 winningProposal_) {\n        uint256 winningVoteCount = 0;\n        for (uint256 p = 0; p < panelsCount; p++) {\n            if (panels[p].voteCount > winningVoteCount) {\n                winningVoteCount = panels[p].voteCount;\n                winningProposal_ = p;\n            }\n        }\n    }\n\n    function winnerName() public view returns (string) {\n        return panels[winningProposal()].name;\n    }\n}\n",
  "sourcePath": "./TruffleDapp/contracts/helloworld.sol",
  "compiler": {
    "name": "solc",
    "version": "0.4.26+commit.4563c3fc.Emscripten.clang"
  },
  "schemaVersion": "2.0.3",
  "updatedAt": "2022-12-06T07:01:36.945Z"
}